{
  "_format": "hh-sol-artifact-1",
  "contractName": "ChainRegistry",
  "sourceName": "contracts/ChainRegistry.sol",
  "abi": [
    {
      "inputs": [],
      "stateMutability": "nonpayable",
      "type": "constructor"
    },
    {
      "anonymous": false,
      "inputs": [
        {
          "indexed": true,
          "internalType": "uint256",
          "name": "chainId",
          "type": "uint256"
        },
        {
          "indexed": true,
          "internalType": "address",
          "name": "contractAddress",
          "type": "address"
        },
        {
          "indexed": false,
          "internalType": "string",
          "name": "name",
          "type": "string"
        }
      ],
      "name": "ChainRegistered",
      "type": "event"
    },
    {
      "anonymous": false,
      "inputs": [
        {
          "indexed": true,
          "internalType": "uint256",
          "name": "chainId",
          "type": "uint256"
        },
        {
          "indexed": false,
          "internalType": "address",
          "name": "verifier",
          "type": "address"
        }
      ],
      "name": "ChainVerified",
      "type": "event"
    },
    {
      "inputs": [
        {
          "internalType": "address",
          "name": "_deployer",
          "type": "address"
        }
      ],
      "name": "addVerifiedDeployer",
      "outputs": [],
      "stateMutability": "nonpayable",
      "type": "function"
    },
    {
      "inputs": [
        {
          "internalType": "uint256",
          "name": "",
          "type": "uint256"
        }
      ],
      "name": "chainMetadata",
      "outputs": [
        {
          "internalType": "uint256",
          "name": "chainId",
          "type": "uint256"
        },
        {
          "internalType": "address",
          "name": "contractAddress",
          "type": "address"
        },
        {
          "internalType": "string",
          "name": "name",
          "type": "string"
        },
        {
          "internalType": "string",
          "name": "symbol",
          "type": "string"
        },
        {
          "internalType": "uint256",
          "name": "deployedBlock",
          "type": "uint256"
        },
        {
          "internalType": "bool",
          "name": "verified",
          "type": "bool"
        },
        {
          "internalType": "string",
          "name": "cdkVersion",
          "type": "string"
        },
        {
          "internalType": "string",
          "name": "zkevmVersion",
          "type": "string"
        }
      ],
      "stateMutability": "view",
      "type": "function"
    },
    {
      "inputs": [
        {
          "internalType": "uint256",
          "name": "_chainId",
          "type": "uint256"
        }
      ],
      "name": "getChainMetadata",
      "outputs": [
        {
          "components": [
            {
              "internalType": "uint256",
              "name": "chainId",
              "type": "uint256"
            },
            {
              "internalType": "address",
              "name": "contractAddress",
              "type": "address"
            },
            {
              "internalType": "string",
              "name": "name",
              "type": "string"
            },
            {
              "internalType": "string",
              "name": "symbol",
              "type": "string"
            },
            {
              "internalType": "uint256",
              "name": "deployedBlock",
              "type": "uint256"
            },
            {
              "internalType": "bool",
              "name": "verified",
              "type": "bool"
            },
            {
              "internalType": "string",
              "name": "cdkVersion",
              "type": "string"
            },
            {
              "internalType": "string",
              "name": "zkevmVersion",
              "type": "string"
            }
          ],
          "internalType": "struct ChainRegistry.ChainMetadata",
          "name": "",
          "type": "tuple"
        }
      ],
      "stateMutability": "view",
      "type": "function"
    },
    {
      "inputs": [
        {
          "internalType": "uint256",
          "name": "_chainId",
          "type": "uint256"
        }
      ],
      "name": "isChainVerified",
      "outputs": [
        {
          "internalType": "bool",
          "name": "",
          "type": "bool"
        }
      ],
      "stateMutability": "view",
      "type": "function"
    },
    {
      "inputs": [],
      "name": "owner",
      "outputs": [
        {
          "internalType": "address",
          "name": "",
          "type": "address"
        }
      ],
      "stateMutability": "view",
      "type": "function"
    },
    {
      "inputs": [
        {
          "internalType": "uint256",
          "name": "_chainId",
          "type": "uint256"
        },
        {
          "internalType": "address",
          "name": "_contractAddress",
          "type": "address"
        },
        {
          "internalType": "string",
          "name": "_name",
          "type": "string"
        },
        {
          "internalType": "string",
          "name": "_symbol",
          "type": "string"
        },
        {
          "internalType": "string",
          "name": "_cdkVersion",
          "type": "string"
        },
        {
          "internalType": "string",
          "name": "_zkevmVersion",
          "type": "string"
        }
      ],
      "name": "registerChain",
      "outputs": [],
      "stateMutability": "nonpayable",
      "type": "function"
    },
    {
      "inputs": [],
      "name": "registeredChainCount",
      "outputs": [
        {
          "internalType": "uint256",
          "name": "",
          "type": "uint256"
        }
      ],
      "stateMutability": "view",
      "type": "function"
    },
    {
      "inputs": [
        {
          "internalType": "address",
          "name": "",
          "type": "address"
        }
      ],
      "name": "verifiedDeployers",
      "outputs": [
        {
          "internalType": "bool",
          "name": "",
          "type": "bool"
        }
      ],
      "stateMutability": "view",
      "type": "function"
    },
    {
      "inputs": [
        {
          "internalType": "uint256",
          "name": "_chainId",
          "type": "uint256"
        }
      ],
      "name": "verifyChain",
      "outputs": [],
      "stateMutability": "nonpayable",
      "type": "function"
    }
  ],
  "bytecode": "0x608060405234801561001057600080fd5b50600280546001600160a01b031916339081179091556000908152600160208190526040909120805460ff19169091179055610f44806100516000396000f3fe608060405234801561001057600080fd5b50600436106100935760003560e01c80638da5cb5b116100665780638da5cb5b146101185780639f1fdee614610143578063a4cf65471461016a578063cb4af76b1461017d578063fa943baf1461019457600080fd5b80633691ba4d14610098578063621dfc48146100ad57806363cd79ab146100e55780638059a6f814610105575b600080fd5b6100ab6100a6366004610afb565b6101ba565b005b6100d06100bb366004610bc1565b60016020526000908152604090205460ff1681565b60405190151581526020015b60405180910390f35b6100f86100f3366004610be3565b610377565b6040516100dc9190610c42565b6100ab610113366004610bc1565b61066f565b60025461012b906001600160a01b031681565b6040516001600160a01b0390911681526020016100dc565b610156610151366004610be3565b6106dc565b6040516100dc989796959493929190610d07565b6100ab610178366004610be3565b61094f565b61018660035481565b6040519081526020016100dc565b6100d06101a2366004610be3565b60009081526020819052604090206005015460ff1690565b6000868152602081905260409020541561021b5760405162461bcd60e51b815260206004820152601860248201527f436861696e20616c72656164792072656769737465726564000000000000000060448201526064015b60405180910390fd5b60408051610100810182528781526001600160a01b0387811660208084019182528385018981526060850189905243608086015233600090815260018084528782205460ff16151560a088015260c087018a905260e087018990528d8252928190529590952084518155915190820180546001600160a01b031916919093161790915591519091829160028201906102b39082610e14565b50606082015160038201906102c89082610e14565b506080820151600482015560a082015160058201805460ff191691151591909117905560c082015160068201906102ff9082610e14565b5060e082015160078201906103149082610e14565b5050600380549150600061032783610ed4565b9190505550856001600160a01b0316877fcdf7853dbbc20206e9a44851dd296300ff5eb2e569e7bd3adc43001de50758ca876040516103669190610efb565b60405180910390a350505050505050565b6103ca6040518061010001604052806000815260200160006001600160a01b0316815260200160608152602001606081526020016000815260200160001515815260200160608152602001606081525090565b600082815260208181526040918290208251610100810184528154815260018201546001600160a01b031692810192909252600281018054929391929184019161041390610d8b565b80601f016020809104026020016040519081016040528092919081815260200182805461043f90610d8b565b801561048c5780601f106104615761010080835404028352916020019161048c565b820191906000526020600020905b81548152906001019060200180831161046f57829003601f168201915b505050505081526020016003820180546104a590610d8b565b80601f01602080910402602001604051908101604052809291908181526020018280546104d190610d8b565b801561051e5780601f106104f35761010080835404028352916020019161051e565b820191906000526020600020905b81548152906001019060200180831161050157829003601f168201915b505050918352505060048201546020820152600582015460ff161515604082015260068201805460609092019161055490610d8b565b80601f016020809104026020016040519081016040528092919081815260200182805461058090610d8b565b80156105cd5780601f106105a2576101008083540402835291602001916105cd565b820191906000526020600020905b8154815290600101906020018083116105b057829003601f168201915b505050505081526020016007820180546105e690610d8b565b80601f016020809104026020016040519081016040528092919081815260200182805461061290610d8b565b801561065f5780601f106106345761010080835404028352916020019161065f565b820191906000526020600020905b81548152906001019060200180831161064257829003601f168201915b5050505050815250509050919050565b6002546001600160a01b031633146106b55760405162461bcd60e51b81526020600482015260096024820152682737ba1037bbb732b960b91b6044820152606401610212565b6001600160a01b03166000908152600160208190526040909120805460ff19169091179055565b60006020819052908152604090208054600182015460028301805492936001600160a01b039092169261070e90610d8b565b80601f016020809104026020016040519081016040528092919081815260200182805461073a90610d8b565b80156107875780601f1061075c57610100808354040283529160200191610787565b820191906000526020600020905b81548152906001019060200180831161076a57829003601f168201915b50505050509080600301805461079c90610d8b565b80601f01602080910402602001604051908101604052809291908181526020018280546107c890610d8b565b80156108155780601f106107ea57610100808354040283529160200191610815565b820191906000526020600020905b8154815290600101906020018083116107f857829003601f168201915b50505050600483015460058401546006850180549495929460ff90921693509061083e90610d8b565b80601f016020809104026020016040519081016040528092919081815260200182805461086a90610d8b565b80156108b75780601f1061088c576101008083540402835291602001916108b7565b820191906000526020600020905b81548152906001019060200180831161089a57829003601f168201915b5050505050908060070180546108cc90610d8b565b80601f01602080910402602001604051908101604052809291908181526020018280546108f890610d8b565b80156109455780601f1061091a57610100808354040283529160200191610945565b820191906000526020600020905b81548152906001019060200180831161092857829003601f168201915b5050505050905088565b6002546001600160a01b031633146109955760405162461bcd60e51b81526020600482015260096024820152682737ba1037bbb732b960b91b6044820152606401610212565b60008181526020819052604081205490036109e95760405162461bcd60e51b815260206004820152601460248201527310da185a5b881b9bdd081c9959da5cdd195c995960621b6044820152606401610212565b60008181526020818152604091829020600501805460ff19166001179055905133815282917f3a1780fb53ec0dcfb965e00225a89464aab60dd664b7136580b9409a624ec214910160405180910390a250565b80356001600160a01b0381168114610a5357600080fd5b919050565b634e487b7160e01b600052604160045260246000fd5b600082601f830112610a7f57600080fd5b813567ffffffffffffffff80821115610a9a57610a9a610a58565b604051601f8301601f19908116603f01168101908282118183101715610ac257610ac2610a58565b81604052838152866020858801011115610adb57600080fd5b836020870160208301376000602085830101528094505050505092915050565b60008060008060008060c08789031215610b1457600080fd5b86359550610b2460208801610a3c565b9450604087013567ffffffffffffffff80821115610b4157600080fd5b610b4d8a838b01610a6e565b95506060890135915080821115610b6357600080fd5b610b6f8a838b01610a6e565b94506080890135915080821115610b8557600080fd5b610b918a838b01610a6e565b935060a0890135915080821115610ba757600080fd5b50610bb489828a01610a6e565b9150509295509295509295565b600060208284031215610bd357600080fd5b610bdc82610a3c565b9392505050565b600060208284031215610bf557600080fd5b5035919050565b6000815180845260005b81811015610c2257602081850181015186830182015201610c06565b506000602082860101526020601f19601f83011685010191505092915050565b602081528151602082015260006020830151610c6960408401826001600160a01b03169052565b506040830151610100806060850152610c86610120850183610bfc565b91506060850151601f1980868503016080870152610ca48483610bfc565b9350608087015160a087015260a08701519150610cc560c087018315159052565b60c08701519150808685030160e0870152610ce08483610bfc565b935060e0870151915080868503018387015250610cfd8382610bfc565b9695505050505050565b8881526001600160a01b038816602082015261010060408201819052600090610d328382018a610bfc565b90508281036060840152610d468189610bfc565b905086608084015285151560a084015282810360c0840152610d688186610bfc565b905082810360e0840152610d7c8185610bfc565b9b9a5050505050505050505050565b600181811c90821680610d9f57607f821691505b602082108103610dbf57634e487b7160e01b600052602260045260246000fd5b50919050565b601f821115610e0f57600081815260208120601f850160051c81016020861015610dec5750805b601f850160051c820191505b81811015610e0b57828155600101610df8565b5050505b505050565b815167ffffffffffffffff811115610e2e57610e2e610a58565b610e4281610e3c8454610d8b565b84610dc5565b602080601f831160018114610e775760008415610e5f5750858301515b600019600386901b1c1916600185901b178555610e0b565b600085815260208120601f198616915b82811015610ea657888601518255948401946001909101908401610e87565b5085821015610ec45787850151600019600388901b60f8161c191681555b5050505050600190811b01905550565b600060018201610ef457634e487b7160e01b600052601160045260246000fd5b5060010190565b602081526000610bdc6020830184610bfc56fea26469706673582212207f9b22b478d3ec77d9a980b36bff325e56ca91c9ced79728ba96fb1d8c42b29764736f6c63430008140033",
  "linkReferences": {},
  "deployedLinkReferences": {}
}