{
  "_format": "hh-sol-artifact-1",
  "contractName": "ChainFactory",
  "sourceName": "contracts/ChainFactory.sol",
  "abi": [
    {
      "anonymous": false,
      "inputs": [
        {
          "indexed": true,
          "internalType": "uint256",
          "name": "chainId",
          "type": "uint256"
        },
        {
          "indexed": true,
          "internalType": "address",
          "name": "owner",
          "type": "address"
        },
        {
          "indexed": false,
          "internalType": "string",
          "name": "name",
          "type": "string"
        },
        {
          "indexed": false,
          "internalType": "string",
          "name": "chainType",
          "type": "string"
        },
        {
          "indexed": false,
          "internalType": "string",
          "name": "rollupType",
          "type": "string"
        }
      ],
      "name": "ChainCreated",
      "type": "event"
    },
    {
      "anonymous": false,
      "inputs": [
        {
          "indexed": true,
          "internalType": "uint256",
          "name": "chainId",
          "type": "uint256"
        },
        {
          "indexed": true,
          "internalType": "address",
          "name": "owner",
          "type": "address"
        }
      ],
      "name": "ChainDeleted",
      "type": "event"
    },
    {
      "anonymous": false,
      "inputs": [
        {
          "indexed": true,
          "internalType": "uint256",
          "name": "chainId",
          "type": "uint256"
        },
        {
          "indexed": false,
          "internalType": "bool",
          "name": "isActive",
          "type": "bool"
        }
      ],
      "name": "ChainUpdated",
      "type": "event"
    },
    {
      "inputs": [],
      "name": "chainCount",
      "outputs": [
        {
          "internalType": "uint256",
          "name": "",
          "type": "uint256"
        }
      ],
      "stateMutability": "view",
      "type": "function"
    },
    {
      "inputs": [
        {
          "internalType": "uint256",
          "name": "",
          "type": "uint256"
        }
      ],
      "name": "chains",
      "outputs": [
        {
          "internalType": "uint256",
          "name": "id",
          "type": "uint256"
        },
        {
          "internalType": "address",
          "name": "owner",
          "type": "address"
        },
        {
          "internalType": "string",
          "name": "name",
          "type": "string"
        },
        {
          "internalType": "string",
          "name": "chainType",
          "type": "string"
        },
        {
          "internalType": "string",
          "name": "rollupType",
          "type": "string"
        },
        {
          "internalType": "string",
          "name": "gasToken",
          "type": "string"
        },
        {
          "internalType": "uint256",
          "name": "validators",
          "type": "uint256"
        },
        {
          "internalType": "uint256",
          "name": "createdAt",
          "type": "uint256"
        },
        {
          "internalType": "bool",
          "name": "isActive",
          "type": "bool"
        },
        {
          "internalType": "string",
          "name": "rpcUrl",
          "type": "string"
        },
        {
          "internalType": "string",
          "name": "explorerUrl",
          "type": "string"
        }
      ],
      "stateMutability": "view",
      "type": "function"
    },
    {
      "inputs": [
        {
          "internalType": "string",
          "name": "_name",
          "type": "string"
        },
        {
          "internalType": "string",
          "name": "_chainType",
          "type": "string"
        },
        {
          "internalType": "string",
          "name": "_rollupType",
          "type": "string"
        },
        {
          "internalType": "string",
          "name": "_gasToken",
          "type": "string"
        },
        {
          "internalType": "uint256",
          "name": "_validators",
          "type": "uint256"
        },
        {
          "internalType": "string",
          "name": "_rpcUrl",
          "type": "string"
        },
        {
          "internalType": "string",
          "name": "_explorerUrl",
          "type": "string"
        }
      ],
      "name": "createChain",
      "outputs": [
        {
          "internalType": "uint256",
          "name": "",
          "type": "uint256"
        }
      ],
      "stateMutability": "nonpayable",
      "type": "function"
    },
    {
      "inputs": [
        {
          "internalType": "uint256",
          "name": "_chainId",
          "type": "uint256"
        }
      ],
      "name": "deleteChain",
      "outputs": [],
      "stateMutability": "nonpayable",
      "type": "function"
    },
    {
      "inputs": [
        {
          "internalType": "uint256",
          "name": "_chainId",
          "type": "uint256"
        }
      ],
      "name": "getChain",
      "outputs": [
        {
          "components": [
            {
              "internalType": "uint256",
              "name": "id",
              "type": "uint256"
            },
            {
              "internalType": "address",
              "name": "owner",
              "type": "address"
            },
            {
              "internalType": "string",
              "name": "name",
              "type": "string"
            },
            {
              "internalType": "string",
              "name": "chainType",
              "type": "string"
            },
            {
              "internalType": "string",
              "name": "rollupType",
              "type": "string"
            },
            {
              "internalType": "string",
              "name": "gasToken",
              "type": "string"
            },
            {
              "internalType": "uint256",
              "name": "validators",
              "type": "uint256"
            },
            {
              "internalType": "uint256",
              "name": "createdAt",
              "type": "uint256"
            },
            {
              "internalType": "bool",
              "name": "isActive",
              "type": "bool"
            },
            {
              "internalType": "string",
              "name": "rpcUrl",
              "type": "string"
            },
            {
              "internalType": "string",
              "name": "explorerUrl",
              "type": "string"
            }
          ],
          "internalType": "struct ChainFactory.Chain",
          "name": "",
          "type": "tuple"
        }
      ],
      "stateMutability": "view",
      "type": "function"
    },
    {
      "inputs": [],
      "name": "getTotalChains",
      "outputs": [
        {
          "internalType": "uint256",
          "name": "",
          "type": "uint256"
        }
      ],
      "stateMutability": "view",
      "type": "function"
    },
    {
      "inputs": [
        {
          "internalType": "address",
          "name": "_user",
          "type": "address"
        }
      ],
      "name": "getUserChains",
      "outputs": [
        {
          "internalType": "uint256[]",
          "name": "",
          "type": "uint256[]"
        }
      ],
      "stateMutability": "view",
      "type": "function"
    },
    {
      "inputs": [
        {
          "internalType": "uint256",
          "name": "_chainId",
          "type": "uint256"
        },
        {
          "internalType": "bool",
          "name": "_isActive",
          "type": "bool"
        }
      ],
      "name": "updateChainStatus",
      "outputs": [],
      "stateMutability": "nonpayable",
      "type": "function"
    },
    {
      "inputs": [
        {
          "internalType": "address",
          "name": "",
          "type": "address"
        },
        {
          "internalType": "uint256",
          "name": "",
          "type": "uint256"
        }
      ],
      "name": "userChains",
      "outputs": [
        {
          "internalType": "uint256",
          "name": "",
          "type": "uint256"
        }
      ],
      "stateMutability": "view",
      "type": "function"
    }
  ],
  "bytecode": "0x608060405234801561001057600080fd5b5061157b806100206000396000f3fe608060405234801561001057600080fd5b50600436106100935760003560e01c80636a36c423116100665780636a36c42314610101578063a3e6103814610114578063b6791ad414610127578063cc64079e14610147578063e02e1bfd1461016757600080fd5b80630f3f6b5b14610098578063264f59b8146100ad5780634f62abd5146100c4578063550325b5146100d7575b600080fd5b6100ab6100a6366004610e9d565b610170565b005b6002545b6040519081526020015b60405180910390f35b6100b16100d2366004610eee565b61022b565b6100ea6100e5366004610f18565b61025c565b6040516100bb9b9a99989796959493929190610f77565b6100ab61010f366004610f18565b6105f2565b6100b16101223660046110d8565b6107dc565b61013a610135366004610f18565b6109a0565b6040516100bb91906111d8565b61015a6101553660046112e9565b610ddb565b6040516100bb919061130b565b6100b160025481565b60008281526020819052604090206001015482906001600160a01b031633146101d25760405162461bcd60e51b815260206004820152600f60248201526e2737ba1031b430b4b71037bbb732b960891b60448201526064015b60405180910390fd5b60008381526020818152604091829020600801805460ff1916851515908117909155915191825284917f87634784dcd711c95eeada7ac1b47534172532618b7c1938b456431c04dad214910160405180910390a2505050565b6001602052816000526040600020818154811061024757600080fd5b90600052602060002001600091509150505481565b60006020819052908152604090208054600182015460028301805492936001600160a01b039092169261028e9061134f565b80601f01602080910402602001604051908101604052809291908181526020018280546102ba9061134f565b80156103075780601f106102dc57610100808354040283529160200191610307565b820191906000526020600020905b8154815290600101906020018083116102ea57829003601f168201915b50505050509080600301805461031c9061134f565b80601f01602080910402602001604051908101604052809291908181526020018280546103489061134f565b80156103955780601f1061036a57610100808354040283529160200191610395565b820191906000526020600020905b81548152906001019060200180831161037857829003601f168201915b5050505050908060040180546103aa9061134f565b80601f01602080910402602001604051908101604052809291908181526020018280546103d69061134f565b80156104235780601f106103f857610100808354040283529160200191610423565b820191906000526020600020905b81548152906001019060200180831161040657829003601f168201915b5050505050908060050180546104389061134f565b80601f01602080910402602001604051908101604052809291908181526020018280546104649061134f565b80156104b15780601f10610486576101008083540402835291602001916104b1565b820191906000526020600020905b81548152906001019060200180831161049457829003601f168201915b5050506006840154600785015460088601546009870180549697939692955060ff9091169350906104e19061134f565b80601f016020809104026020016040519081016040528092919081815260200182805461050d9061134f565b801561055a5780601f1061052f5761010080835404028352916020019161055a565b820191906000526020600020905b81548152906001019060200180831161053d57829003601f168201915b50505050509080600a01805461056f9061134f565b80601f016020809104026020016040519081016040528092919081815260200182805461059b9061134f565b80156105e85780601f106105bd576101008083540402835291602001916105e8565b820191906000526020600020905b8154815290600101906020018083116105cb57829003601f168201915b505050505090508b565b60008181526020819052604090206001015481906001600160a01b0316331461064f5760405162461bcd60e51b815260206004820152600f60248201526e2737ba1031b430b4b71037bbb732b960891b60448201526064016101c9565b60008281526020819052604081208181556001810180546001600160a01b0319169055906106806002830182610e47565b61068e600383016000610e47565b61069c600483016000610e47565b6106aa600583016000610e47565b6000600683018190556007830181905560088301805460ff191690556106d4906009840190610e47565b6106e2600a83016000610e47565b5050336000908152600160205260408120905b81548110156107a9578382828154811061071157610711611389565b9060005260206000200154036107975781548290610731906001906113b5565b8154811061074157610741611389565b906000526020600020015482828154811061075e5761075e611389565b90600052602060002001819055508180548061077c5761077c6113ce565b600190038181906000526020600020016000905590556107a9565b806107a1816113e4565b9150506106f5565b50604051339084907f25ef8631d35f3ea471684148c18fb1eb77014f5cffb3328837563c4effd4886c90600090a3505050565b60028054600091826107ed836113e4565b90915550506002805460408051610160810182528281523360208083019182528284018e8152606084018e9052608084018d905260a084018c905260c084018b90524260e08501526001610100850181905261012085018b905261014085018a90526000878152928390529490912083518155915193820180546001600160a01b0319166001600160a01b0390951694909417909355915192939092839291820190610899908261144c565b50606082015160038201906108ae908261144c565b50608082015160048201906108c3908261144c565b5060a082015160058201906108d8908261144c565b5060c0820151600682015560e0820151600782015561010082015160088201805460ff1916911515919091179055610120820151600982019061091b908261144c565b50610140820151600a820190610931908261144c565b50503360008181526001602081815260408084208054938401815584529220018590555190915083907f4f1cc59e2c14c90f5f66d80be347241be0d824acca6b5e8668970fd07b2035399061098b908e908e908e9061150c565b60405180910390a35098975050505050505050565b610a086040518061016001604052806000815260200160006001600160a01b0316815260200160608152602001606081526020016060815260200160608152602001600081526020016000815260200160001515815260200160608152602001606081525090565b600082815260208181526040918290208251610160810184528154815260018201546001600160a01b0316928101929092526002810180549293919291840191610a519061134f565b80601f0160208091040260200160405190810160405280929190818152602001828054610a7d9061134f565b8015610aca5780601f10610a9f57610100808354040283529160200191610aca565b820191906000526020600020905b815481529060010190602001808311610aad57829003601f168201915b50505050508152602001600382018054610ae39061134f565b80601f0160208091040260200160405190810160405280929190818152602001828054610b0f9061134f565b8015610b5c5780601f10610b3157610100808354040283529160200191610b5c565b820191906000526020600020905b815481529060010190602001808311610b3f57829003601f168201915b50505050508152602001600482018054610b759061134f565b80601f0160208091040260200160405190810160405280929190818152602001828054610ba19061134f565b8015610bee5780601f10610bc357610100808354040283529160200191610bee565b820191906000526020600020905b815481529060010190602001808311610bd157829003601f168201915b50505050508152602001600582018054610c079061134f565b80601f0160208091040260200160405190810160405280929190818152602001828054610c339061134f565b8015610c805780601f10610c5557610100808354040283529160200191610c80565b820191906000526020600020905b815481529060010190602001808311610c6357829003601f168201915b50505091835250506006820154602082015260078201546040820152600882015460ff1615156060820152600982018054608090920191610cc09061134f565b80601f0160208091040260200160405190810160405280929190818152602001828054610cec9061134f565b8015610d395780601f10610d0e57610100808354040283529160200191610d39565b820191906000526020600020905b815481529060010190602001808311610d1c57829003601f168201915b50505050508152602001600a82018054610d529061134f565b80601f0160208091040260200160405190810160405280929190818152602001828054610d7e9061134f565b8015610dcb5780601f10610da057610100808354040283529160200191610dcb565b820191906000526020600020905b815481529060010190602001808311610dae57829003601f168201915b5050505050815250509050919050565b6001600160a01b038116600090815260016020908152604091829020805483518184028101840190945280845260609392830182828015610e3b57602002820191906000526020600020905b815481526020019060010190808311610e27575b50505050509050919050565b508054610e539061134f565b6000825580601f10610e63575050565b601f016020900490600052602060002090810190610e819190610e84565b50565b5b80821115610e995760008155600101610e85565b5090565b60008060408385031215610eb057600080fd5b8235915060208301358015158114610ec757600080fd5b809150509250929050565b80356001600160a01b0381168114610ee957600080fd5b919050565b60008060408385031215610f0157600080fd5b610f0a83610ed2565b946020939093013593505050565b600060208284031215610f2a57600080fd5b5035919050565b6000815180845260005b81811015610f5757602081850181015186830182015201610f3b565b506000602082860101526020601f19601f83011685010191505092915050565b8b81526001600160a01b038b16602082015261016060408201819052600090610fa28382018d610f31565b90508281036060840152610fb6818c610f31565b90508281036080840152610fca818b610f31565b905082810360a0840152610fde818a610f31565b90508760c08401528660e0840152610ffb61010084018715159052565b82810361012084015261100e8186610f31565b90508281036101408401526110238185610f31565b9e9d5050505050505050505050505050565b634e487b7160e01b600052604160045260246000fd5b600082601f83011261105c57600080fd5b813567ffffffffffffffff8082111561107757611077611035565b604051601f8301601f19908116603f0116810190828211818310171561109f5761109f611035565b816040528381528660208588010111156110b857600080fd5b836020870160208301376000602085830101528094505050505092915050565b600080600080600080600060e0888a0312156110f357600080fd5b873567ffffffffffffffff8082111561110b57600080fd5b6111178b838c0161104b565b985060208a013591508082111561112d57600080fd5b6111398b838c0161104b565b975060408a013591508082111561114f57600080fd5b61115b8b838c0161104b565b965060608a013591508082111561117157600080fd5b61117d8b838c0161104b565b955060808a0135945060a08a013591508082111561119a57600080fd5b6111a68b838c0161104b565b935060c08a01359150808211156111bc57600080fd5b506111c98a828b0161104b565b91505092959891949750929550565b6020815281516020820152600060208301516111ff60408401826001600160a01b03169052565b50604083015161016080606085015261121c610180850183610f31565b91506060850151601f198086850301608087015261123a8483610f31565b935060808701519150808685030160a08701526112578483610f31565b935060a08701519150808685030160c08701526112748483610f31565b935060c087015160e087015260e087015191506101008281880152808801519250506101206112a68188018415159052565b808801519250506101408187860301818801526112c38584610f31565b9088015187820390920184880152935090506112df8382610f31565b9695505050505050565b6000602082840312156112fb57600080fd5b61130482610ed2565b9392505050565b6020808252825182820181905260009190848201906040850190845b8181101561134357835183529284019291840191600101611327565b50909695505050505050565b600181811c9082168061136357607f821691505b60208210810361138357634e487b7160e01b600052602260045260246000fd5b50919050565b634e487b7160e01b600052603260045260246000fd5b634e487b7160e01b600052601160045260246000fd5b818103818111156113c8576113c861139f565b92915050565b634e487b7160e01b600052603160045260246000fd5b6000600182016113f6576113f661139f565b5060010190565b601f82111561144757600081815260208120601f850160051c810160208610156114245750805b601f850160051c820191505b8181101561144357828155600101611430565b5050505b505050565b815167ffffffffffffffff81111561146657611466611035565b61147a81611474845461134f565b846113fd565b602080601f8311600181146114af57600084156114975750858301515b600019600386901b1c1916600185901b178555611443565b600085815260208120601f198616915b828110156114de578886015182559484019460019091019084016114bf565b50858210156114fc5787850151600019600388901b60f8161c191681555b5050505050600190811b01905550565b60608152600061151f6060830186610f31565b82810360208401526115318186610f31565b905082810360408401526112df8185610f3156fea26469706673582212206d863c1414afab448876bcce944174c6cb92e64b65a62b8803876f0d3817cd7a64736f6c63430008140033",
  "linkReferences": {},
  "deployedLinkReferences": {}
}